:02000000802E50
:03000B00B2973277
:10003000758902758CFAD28C75A88212004912005B
:100040005E12006812007680E7D295C295D29620A3
:1000500094FDC2967F96120076DFFBE5B02275F024
:100060000A8485F010F51122900900E51093F5201F
:10007000E51193F52122852180D2901200A353909F
:10008000F0852080D2911200A35390F075809CD20D
:10009000921200A35390F07580C6D2931200A3531E
:0A00A00090F022757F64D57FFD22E9
:0A090000C0F9A4B0999282F880902B
:00000001FF
